S014000053696E676C655F64696769742E737265633E
S11300000C9462000C948A000C948A000C948A006C
S11300100C948A000C948A000C948A000C948A0034
S11300200C948A000C948A000C948A000C948A0024
S11300300C948A000C948A000C948A000C948A0014
S11300400C94A8040C948A000C9400030C943203BE
S11300500C948A000C948A000C948A000C948A00F4
S11300600C948A000C948A0000000008000201002D
S1130070000304070000000000000000010204085F
S113008010204080010204081020010204081020FE
S1130090040404040404040402020202020203032A
S11300A003030303000000002300260029000000CE
S11300B00000250028002B00000000002400270079
S11300C02A00620311241FBECFEFD8E0DEBFCDBFEC
S11300D011E0A0E0B1E0EEEEFCE002C005900D926C
S11300E0A632B107D9F721E0A6E2B1E001C01D9222
S11300F0A03DB207E1F710E0C2E6D0E004C02197CA
S1130100FE010E946F06C136D107C9F70E94900311
S11301100C9475060C940000CF93DF93009789F537
S11301206130710539F461E088E00E94F30560E014
S113013089E030C06230710509F091C061E088E067
S11301400E94F305C4E6D0E081E00E942306892BD7
S113015009F467C084E00E942306892B09F461C076
S11301606EE170E080E090E00E941705219761F74E
S113017068EB7BE080E090E00E94170560E088E097
S113018035C08130910559F461E089E00E94F3059E
S113019060E088E00E94F30560E08AE038C00297DE
S11301A009F05DC06115710529F561E08AE00E94DE
S11301B0F305C4E6D0E081E00E942306892B09F40C
S11301C03FC084E00E942306892BD1F16EE170E0E8
S11301D080E090E00E941705219769F768EB7BE0C7
S11301E080E090E00E94170560E089E0DF91CF9104
S11301F00C94F3056130710591F561E08AE00E9489
S1130200F30560E088E00E94F30560E089E00E9465
S1130210F30568EB7BE080E090E0DF91CF910C94F4
S1130220170561E089E00E94F30568EE73E080E061
S113023090E00E94170560E08AE00E94F30590CFE9
S113024061E089E00E94F30568EE73E080E090E0ED
S11302500E94170560E088E00E94F305B7CFDF91A4
S1130260CF91089561E088E00E94B70561E089E0DC
S11302700E94B70561E08AE00E94B70560E080E073
S11302800E94B70560E081E00E94B70560E082E06B
S11302900E94B70560E083E00E94B70560E084E057
S11302A00E94B70560E085E00E94B70526E040E8BB
S11302B055E260E070E08AE291E00C949B02609168
S11302C02801709129014AE050E08AE291E00E94FD
S11302D08A0460E071E08AE291E00E94DF036091A9
S11302E02601709127014AE050E08AE291E00E94E1
S11302F0910480E00E942306892B41F48091280117
S1130300909129010197029730F434C083E00E9450
S11303102306892B99F381E00E942306892B41F45B
S113032080912801909129018D7F892B81F105C04D
S113033084E00E942306892B99F382E00E9423061D
S1130340892B91F48091280190912901029760F5FD
S1130350609126017091270182E090E09093290139
S1130360809328010C948C0085E00E942306892B3D
S113037049F3089560912601709127011092290193
S11303801092280180E090E00E948C00C4CF60911C
S113039026017091270181E090E0909329018093D8
S11303A028010E948C00C9CF0895FC01918D228DF3
S11303B0892F90E0805C9F4F821B91098F7399274E
S11303C00895FC01918D828D981731F0828DE80F8C
S11303D0F11D858D90E008958FEF9FEF0895FC0146
S11303E0918D828D981761F0828DDF01A80FB11D68
S11303F05D968C91928D9F5F9F73928F90E008958C
S11304008FEF9FEF089588E593E0892B49F080E012
S113041090E0892B29F00E94580381110C9400006C
S11304200895FC01848DDF01A80FB11DA35ABF4FAD
S11304302C91848D90E001968F739927848FA689DF
S1130440B7892C93A089B1898C9180648C93938D06
S1130450848D981306C00288F389E02D80818F7DF6
S113046080830895CF93DF93EC01888D8823C9F0AE
S1130470EA89FB89808185FD05C0A889B9898C91A9
S113048086FD0FC00FB607FCF5CF808185FFF2CF44
S1130490A889B9898C9185FFEDCFCE010E94110204
S11304A0E7CFDF91CF910895EF92FF920F931F93BF
S11304B0CF93DF93EC0181E0888F9B8D8C8D981313
S11304C005C0E889F989808185FD24C0F62E0B8D4D
S11304D010E00F5F1F4F0F731127E02E8C8DE81271
S11304E00CC00FB607FCFACFE889F989808185FF33
S11304F0F5CFCE010E941102F1CF8B8DFE01E80FE2
S1130500F11DE35AFF4FF0820B8FEA89FB8980814A
S1130510806207C0EE89FF896083E889F989808158
S11305208064808381E090E0DF91CF911F910F91EF
S1130530FF90EF900895CF92DF92EF92FF921F9376
S1130540CF93DF93EC016A017B01122FE889F989CB
S113055082E080834115514E61057105B1F060E080
S113056079E08DE390E0A70196010E944D06DA013F
S1130570C9010197A109B109B695A79597958795E2
S1130580AC01411580E15807A8F0E889F989108287
S113059060E874E88EE190E0A70196010E944D06A0
S11305A0BA01A9014150510961097109769567950C
S11305B057954795EC85FD855083EE85FF854083EF
S11305C0188EEC89FD891083EA89FB89808180611A
S11305D08083EA89FB89808188608083EA89FB893A
S11305E0808180688083EA89FB8980818F7D808314
S11305F0DF91CF911F91FF90EF90DF90CF900895FE
S11306001F920F920FB60F9211242F938F939F93E3
S1130610EF93FF93E0913A01F0913B018081E091E7
S11306204001F091410182FD12C09081809143010B
S11306308F5F8F7320914401821751F0E091430141
S1130640F0E0E65DFE4F958F8093430101C0808109
S1130650FF91EF919F918F912F910F900FBE0F906B
S11306601F9018951F920F920FB60F9211242F937B
S11306703F934F935F936F937F938F939F93AF9326
S1130680BF93EF93FF938AE291E00E941102FF91DE
S1130690EF91BF91AF919F918F917F916F915F91F6
S11306A04F913F912F910F900FBE0F901F9018956F
S11306B08AE291E00E94D50121E0892B09F420E02F
S11306C0822F0895EAE2F1E01382128288EE93E029
S11306D0A0E0B0E084839583A683B7838AE091E0A9
S11306E09183808385EC90E09587848784EC90E007
S11306F09787868780EC90E0918B808B81EC90E0EB
S1130700938B828B82EC90E0958B848B86EC90E0CB
S1130710978B868B118E128E138E148E08950895E6
S11307200E9453050E948F030E943201C3E0D2E06D
S11307300E945F012097E1F30E940302F9CFCF9258
S1130740DF92EF92FF920F931F93CF93DF936C018D
S11307507A018B01C0E0D0E0CE15DF0589F0D80125
S11307606D918D01D601ED91FC910190F081E02D08
S1130770C6010995892B11F47E0102C02196ECCFA4
S1130780C701DF91CF911F910F91FF90EF90DF9000
S1130790CF9008956115710579F0FB010190002057
S11307A0E9F73197AF01461B570BDC01ED91FC9142
S11307B00280F381E02D099480E090E008950C9488
S11307C0CA03DC01ED91FC910190F081E02D0994C4
S11307D066E171E00C94CA038F929F92AF92BF922C
S11307E0CF92DF92EF92FF920F931F93CF93DF93F9
S11307F0CDB7DEB7A1970FB6F894DEBF0FBECDBF5D
S11308007C01D42EC52EDB0119A2223008F42AE083
S11308108E010F5D1F4F822E912CA12CB12C6D2DBA
S11308207C2DCD01A50194010E944D06D22EC32E2C
S1130830DA01015011096A3071058105910510F43E
S1130840605D01C0695CF8016083232B242B252B98
S113085031F7B801C7010E94CA03A1960FB6F894F4
S1130860DEBF0FBECDBFDF91CF911F910F91FF90DF
S1130870EF90DF90CF90BF90AF909F908F900895AE
S1130880CF92DF92EF92FF920F931F93CF93DF9358
S1130890EC016A017B012115310579F4E881F981C4
S11308A00190F081E02D642FDF91CF911F910F9182
S11308B0FF90EF90DF90CF9009942A303105E9F44E
S11308C077FF1AC06DE20E94E1038C01442755278B
S11308D0BA014C195D096E097F092AE0CE010E9414
S11308E0EC03800F911FDF91CF911F910F91FF9027
S11308F0EF90DF90CF9008952AE0B701A601CE01D2
S1130900DF91CF911F910F91FF90EF90DF90CF90E7
S11309100C94EC039A01AB01770F660B770B0C94E4
S113092040040F931F93CF93DF93EC019A01AB0123
S1130930770F660B770B0E9440048C01CE010E9456
S1130940E803800F911FDF91CF911F910F910895BC
S11309501F920F920FB60F9211242F933F938F93F0
S11309609F93AF93BF938091C8019091C901A091C7
S1130970CA01B091CB013091C70123E0230F2D3779
S113098020F40196A11DB11D05C026E8230F02968F
S1130990A11DB11D2093C7018093C8019093C90183
S11309A0A093CA01B093CB018091CC019091CD0169
S11309B0A091CE01B091CF010196A11DB11D8093EC
S11309C0CC019093CD01A093CE01B093CF01BF9100
S11309D0AF919F918F913F912F910F900FBE0F90E8
S11309E01F9018953FB7F8948091CC019091CD0158
S11309F0A091CE01B091CF0126B5A89B05C02F3F91
S1130A0019F00196A11DB11D3FBFBA2FA92F982F30
S1130A108827820F911DA11DB11DBC01CD0142E0AB
S1130A20660F771F881F991F4A95D1F708958F92F3
S1130A309F92AF92BF92CF92DF92EF92FF926B019F
S1130A407C010E94F2044B015C01C114D104E10455
S1130A50F10401F10E944C060E94F204DC01CB0176
S1130A6088199909AA09BB09883E9340A105B105D3
S1130A7060F321E0C21AD108E108F10888EE880E7B
S1130A8083E0981EA11CB11CC114D104E104F1043B
S1130A9019F7DBCFFF90EF90DF90CF90BF90AF902E
S1130AA09F908F900895789484B5826084BD84B5B6
S1130AB0816084BD85B5826085BD85B5816085BD55
S1130AC0EEE6F0E0808181608083E1E8F0E010826E
S1130AD0808182608083808181608083E0E8F0E0AF
S1130AE0808181608083E1EBF0E080818460808399
S1130AF0E0EBF0E0808181608083EAE7F0E08081D0
S1130B00846080838081826080838081816080832F
S1130B108081806880831092C1000895833081F0C1
S1130B2028F4813099F08230A1F008958730A9F03B
S1130B308830B9F08430D1F4809180008F7D03C077
S1130B40809180008F7780938000089584B58F779B
S1130B5002C084B58F7D84BD08958091B0008F77E5
S1130B6003C08091B0008F7D8093B0000895CF932F
S1130B70DF9390E0FC01E458FF4F2491FC01E0571F
S1130B80FF4F8491882361F190E0880F991FFC0145
S1130B90E854FF4FC591D491FC01E255FF4FA59154
S1130BA0B491611109C09FB7F8948881209582237C
S1130BB08883EC912E230BC0623061F49FB7F894C4
S1130BC03881822F809583238883EC912E2B2C935C
S1130BD09FBF06C08FB7F894E8812E2B28838FBF60
S1130BE0DF91CF9108951F93CF93DF93282F30E0A7
S1130BF0F901E859FF4F8491F901E458FF4FD4916A
S1130C00F901E057FF4FC491CC23C9F0162F81118D
S1130C100E948E05EC2FF0E0EE0FFF1FE255FF4F10
S1130C20A591B4918FB7F894111105C09C91ED2F43
S1130C30E095E92302C0EC91ED2BEC938FBFDF919B
S1130C40CF911F910895CF93DF93282F30E0F901BE
S1130C50E859FF4F8491F901E458FF4FD491F90109
S1130C60E057FF4FC491CC2391F081110E948E056F
S1130C70EC2FF0E0EE0FFF1FEC55FF4FA591B49160
S1130C80EC91ED2381E090E021F480E002C080E06B
S1130C9090E0DF91CF9108950895A1E21A2EAA1B46
S1130CA0BB1BFD010DC0AA1FBB1FEE1FFF1FA21718
S1130CB0B307E407F50720F0A21BB30BE40BF50B15
S1130CC0661F771F881F991F1A9469F7609570959E
S1130CD0809590959B01AC01BD01CF010895EE0F65
S1110CE0FF1F0590F491E02D0994F894FFCFC6
S1130CEE202D2D2D20000000000054029F03D5015D
S1130CFEEF01E10132020D0A006E616E00696E664B
S1090D0E006F7666000090
S9030000FC
