S014000053696E676C655F64696769742E737265633E
S11300000C9462000C948A000C948A000C948A006C
S11300100C948A000C948A000C948A000C948A0034
S11300200C948A000C948A000C948A000C948A0024
S11300300C948A000C948A000C948A000C948A0014
S11300400C94D3040C948A000C9434030C9466032B
S11300500C948A000C948A000C948A000C948A00F4
S11300600C948A000C948A0000000008000201002D
S1130070000304070000000000000000010204085F
S113008010204080010204081020010204081020FE
S1130090040404040404040402020202020203032A
S11300A003030303000000002300260029000000CE
S11300B00000250028002B00000000002400270079
S11300C02A00960311241FBECFEFD8E0DEBFCDBFB8
S11300D011E0A0E0B1E0EEE7FDE002C005900D9272
S11300E0A032B107D9F721E0A0E2B1E001C01D922E
S11300F0A83CB207E1F710E0C2E6D0E004C02197C3
S1130100FE010E94B706C136D107C9F70E94C40395
S11301100C94BD060C940000CF93DF9360E088E05C
S11301200E943B0660E089E00E943B0660E08AE0B2
S11301300E943B068091200190912101892B21F49A
S113014061E088E00E943B068091200190912101AA
S1130150019721F461E089E00E943B06809120012F
S113016090912101029721F461E08AE00E943B060C
S113017080E00E946B06892B39F4809120019091D4
S11301802101029759F506C083E00E946B06892B72
S1130190A1F324C0109221011092200161E088E0B3
S11301A00E943B06C4E6D0E081E00E946B06892BE6
S11301B009F4A4C084E00E946B06892B09F49EC054
S11301C06EE170E080E090E00E944205219761F7C3
S11301D068EB7BE080E090E00E94420580E00E94B2
S11301E06B06892B39F480912001909121010197AC
S11301F031F493C083E00E946B06892BA1F381E064
S11302000E946B06892B41F4809120019091210179
S1130210892B09F491C005C084E00E946B06892BE8
S113022099F381E00E946B06892B39F480912001B7
S113023090912101029731F490C084E00E946B06F2
S1130240892BA1F382E00E946B06892B39F48091FB
S1130250200190912101892B39F02CC085E00E9466
S11302606B06892BA1F326C082E090E090932101D4
S11302708093200161E08AE00E943B06C4E6D0E05E
S113028081E00E946B06892B09F478C084E00E9407
S11302906B06892B09F472C06EE170E080E090E097
S11302A00E944205219761F768EB7BE080E090E0D3
S11302B00E94420582E00E946B06892BC9F480915A
S11302C0200190912101019709F067C082E090E03C
S11302D0909321018093200161E08AE00E943B0613
S11302E068EB7BE080E090E0DF91CF910C944205D5
S11302F085E00E946B06892B11F34FC061E089E011
S11303000E943B0668EE73E080E090E00E944205A4
S113031060E08AE00E943B0653CF109221011092C4
S1130320200161E088E00E943B0668EB7BE080E00E
S113033090E00E94420563CF81E090E09093210118
S11303408093200161E089E00E943B0668EB7BE03A
S113035080E090E00E94420564CF81E090E09093B9
S113036021018093200161E089E00E943B0668EB53
S11303707BE080E090E00E94420564CF61E089E088
S11303800E943B0668EE73E080E090E00E94420524
S113039060E088E00E943B067FCFDF91CF91089513
S11303A061E088E00E94FF0561E089E00E94FF05AA
S11303B061E08AE00E94FF0560E080E00E94FF05A2
S11303C060E081E00E94FF0560E082E00E94FF059A
S11303D060E083E00E94FF0560E084E00E94FF0586
S11303E060E085E00E94FF0526E040E855E260E019
S11303F070E082E291E00C94CF020E948C008EE0C7
S11304000E94B9054AE050E0BC0182E291E00C94FC
S1130410BC04FC01918D228D892F90E0805C9F4F5C
S1130420821B91098F7399270895FC01918D828D08
S1130430981731F0828DE80FF11D858D90E00895B5
S11304408FEF9FEF0895FC01918D828D981761F0D5
S1130450828DDF01A80FB11D5D968C91928D9F5FF7
S11304609F73928F90E008958FEF9FEF08958CE82B
S113047093E0892B49F080E090E0892B29F00E94D9
S11304808C0381110C9400000895FC01848DDF011C
S1130490A80FB11DA35ABF4F2C91848D90E00196F3
S11304A08F739927848FA689B7892C93A089B189E2
S11304B08C9180648C93938D848D981306C00288EC
S11304C0F389E02D80818F7D80830895CF93DF931E
S11304D0EC01888D8823C9F0EA89FB89808185FD38
S11304E005C0A889B9898C9186FD0FC00FB607FC99
S11304F0F5CF808185FFF2CFA889B9898C9185FFDA
S1130500EDCFCE010E944502E7CFDF91CF91089550
S1130510EF92FF920F931F93CF93DF93EC0181E04F
S1130520888F9B8D8C8D981305C0E889F98980810B
S113053085FD24C0F62E0B8D10E00F5F1F4F0F7347
S11305401127E02E8C8DE8120CC00FB607FCFACFF1
S1130550E889F989808185FFF5CFCE010E944502A3
S1130560F1CF8B8DFE01E80FF11DE35AFF4FF082AE
S11305700B8FEA89FB898081806207C0EE89FF893D
S11305806083E889F98980818064808381E090E0D8
S1130590DF91CF911F910F91FF90EF900895CF922B
S11305A0DF92EF92FF921F93CF93DF93EC016A01E6
S11305B07B01122FE889F98982E080834115514E2D
S11305C061057105B1F060E079E08DE390E0A70189
S11305D096010E949506DA01C9010197A109B109A2
S11305E0B695A79597958795AC01411580E1580775
S11305F0A8F0E889F989108260E874E88EE190E057
S1130600A70196010E949506BA01A901415051091A
S1130610610971097695679557954795EC85FD8530
S11306205083EE85FF854083188EEC89FD89108305
S1130630EA89FB89808180618083EA89FB898081E2
S113064088608083EA89FB89808180688083EA8965
S1130650FB8980818F7D8083DF91CF911F91FF90F3
S1130660EF90DF90CF9008951F920F920FB60F92E4
S113067011242F938F939F93EF93FF93E091320173
S1130680F09133018081E0913801F091390182FDCC
S113069012C0908180913B018F5F8F7320913C0148
S11306A0821751F0E0913B01F0E0EE5DFE4F958F33
S11306B080933B0101C08081FF91EF919F918F91C5
S11306C02F910F900FBE0F901F9018951F920F92AD
S11306D00FB60F9211242F933F934F935F936F9311
S11306E07F938F939F93AF93BF93EF93FF9382E294
S11306F091E00E944502FF91EF91BF91AF919F91CC
S11307008F917F916F915F914F913F912F910F90B6
S11307100FBE0F901F90189582E291E00E9409028B
S113072021E0892B09F420E0822F0895E2E2F1E030
S11307301382128288EE93E0A0E0B0E08483958374
S1130740A683B78385E091E09183808385EC90E074
S11307509587848784EC90E09787868780EC90E087
S1130760918B808B81EC90E0938B828B82EC90E078
S1130770958B848B86EC90E0978B868B118E128EF2
S1130780138E148E089508950E947E050E94C3035B
S11307900E94D001C7E3D2E00E94FD012097E1F35B
S11307A00E943702F9CFCF92DF92EF92FF920F931C
S11307B01F93CF93DF936C017A018B01C0E0D0E0EB
S11307C0CE15DF0589F0D8016D918D01D601ED912B
S11307D0FC910190F081E02DC6010995892B11F45B
S11307E07E0102C02196ECCFC701DF91CF911F910A
S11307F00F91FF90EF90DF90CF90089561157105F0
S113080079F0FB0101900020E9F73197AF01461B15
S1130810570BDC01ED91FC910280F381E02D0994EA
S113082080E090E00895DC01ED91FC910190F0816D
S1130830E02D099461E171E00C94FE038F929F9284
S1130840AF92BF92CF92DF92EF92FF920F931F93DA
S1130850CF93DF93CDB7DEB7A1970FB6F894DEBF81
S11308600FBECDBF7C01D42EC52EDB0119A22230D0
S113087008F42AE08E010F5D1F4F822E912CA12CCB
S1130880B12C6D2D7C2DCD01A50194010E949506FE
S1130890D22EC32EDA01015011096A307105810587
S11308A0910510F4605D01C0695CF8016083232B3D
S11308B0242B252B31F7B801C7010E94FE03A19612
S11308C00FB6F894DEBF0FBECDBFDF91CF911F915D
S11308D00F91FF90EF90DF90CF90BF90AF909F90DB
S11308E08F900895CF92DF92EF92FF920F931F9310
S11308F0CF93DF93EC016A017B012115310579F473
S1130900E881F9810190F081E02D642FDF91CF918E
S11309101F910F91FF90EF90DF90CF9009942A30B0
S11309203105E9F477FF1AC06DE20E9413048C01CB
S113093044275527BA014C195D096E097F092AE03D
S1130940CE010E941E04800F911FDF91CF911F9151
S11309500F91FF90EF90DF90CF9008952AE0B701B8
S1130960A601CE01DF91CF911F910F91FF90EF90DF
S1130970DF90CF900C941E040F931F93CF93DF93BB
S1130980EC019A01AB01770F660B770B0E9472049E
S11309908C01CE010E941A04800F911FDF91CF9128
S11309A01F910F9108951F920F920FB60F92112469
S11309B02F933F938F939F93AF93BF938091C001E5
S11309C09091C101A091C201B091C3013091BF01C6
S11309D023E0230F2D3720F40196A11DB11D05C07E
S11309E026E8230F0296A11DB11D2093BF01809319
S11309F0C0019093C101A093C201B093C30180913F
S1130A00C4019091C501A091C601B091C70101969E
S1130A10A11DB11D8093C4019093C501A093C6018B
S1130A20B093C701BF91AF919F918F913F912F9147
S1130A300F900FBE0F901F9018953FB7F8948091B8
S1130A40C4019091C501A091C601B091C70126B51A
S1130A50A89B05C02F3F19F00196A11DB11D3FBFF2
S1130A60BA2FA92F982F8827820F911DA11DB11D80
S1130A70BC01CD0142E0660F771F881F991F4A957C
S1130A80D1F708958F929F92AF92BF92CF92DF9247
S1130A90EF92FF926B017C010E941D054B015C01EA
S1130AA0C114D104E104F10401F10E9494060E94EE
S1130AB01D05DC01CB0188199909AA09BB09883EE7
S1130AC09340A105B10560F321E0C21AD108E10801
S1130AD0F10888EE880E83E0981EA11CB11CC11495
S1130AE0D104E104F10419F7DBCFFF90EF90DF901C
S1130AF0CF90BF90AF909F908F900895789484B5D5
S1130B00826084BD84B5816084BD85B5826085BD05
S1130B1085B5816085BDEEE6F0E0808181608083EB
S1130B20E1E8F0E0108280818260808380818160CE
S1130B308083E0E8F0E0808181608083E1EBF0E095
S1130B40808184608083E0EBF0E080818160808339
S1130B50EAE7F0E080818460808380818260808322
S1130B608081816080838081806880831092C1004D
S1130B7008958E3008F08E5087702091000190E423
S1130B80299F90011124822B80937C0080917A000C
S1130B90806480937A0080917A0086FDFCCF8091F6
S1130BA078002091790090E0922B0895833081F0B1
S1130BB028F4813099F08230A1F008958730A9F0AB
S1130BC08830B9F08430D1F4809180008F7D03C0E7
S1130BD0809180008F7780938000089584B58F770B
S1130BE002C084B58F7D84BD08958091B0008F7755
S1130BF003C08091B0008F7D8093B0000895CF939F
S1130C00DF9390E0FC01E458FF4F2491FC01E0578E
S1130C10FF4F8491882361F190E0880F991FFC01B4
S1130C20E854FF4FC591D491FC01E255FF4FA591C3
S1130C30B491611109C09FB7F894888120958223EB
S1130C408883EC912E230BC0623061F49FB7F89433
S1130C503881822F809583238883EC912E2B2C93CB
S1130C609FBF06C08FB7F894E8812E2B28838FBFCF
S1130C70DF91CF9108951F93CF93DF93282F30E016
S1130C80F901E859FF4F8491F901E458FF4FD491D9
S1130C90F901E057FF4FC491CC23C9F0162F8111FD
S1130CA00E94D605EC2FF0E0EE0FFF1FE255FF4F38
S1130CB0A591B4918FB7F894111105C09C91ED2FB3
S1130CC0E095E92302C0EC91ED2BEC938FBFDF910B
S1130CD0CF911F910895CF93DF93282F30E0F9012E
S1130CE0E859FF4F8491F901E458FF4FD491F90179
S1130CF0E057FF4FC491CC2391F081110E94D60597
S1130D00EC2FF0E0EE0FFF1FEC55FF4FA591B491CF
S1130D10EC91ED2381E090E021F480E002C080E0DA
S1130D2090E0DF91CF9108950895A1E21A2EAA1BB5
S1130D30BB1BFD010DC0AA1FBB1FEE1FFF1FA21787
S1130D40B307E407F50720F0A21BB30BE40BF50B84
S1130D50661F771F881F991F1A9469F7609570950D
S1130D60809590959B01AC01BD01CF010895EE0FD4
S1110D70FF1F0590F491E02D0994F894FFCF35
S1130D7E01000000008802D3030902230215026653
S1130D8E020D0A006E616E00696E66006F76660073
S9030000FC
