S0110000746573745F746573742E7372656334
S11300000C9462000C948A000C948A000C948A006C
S11300100C948A000C948A000C948A000C948A0034
S11300200C948A000C948A000C948A000C948A0024
S11300300C948A000C948A000C948A000C948A0014
S11300400C9406040C948A000C943C030C946E03E8
S11300500C948A000C948A000C948A000C948A00F4
S11300600C948A000C948A0000000008000201002D
S1130070000304070000000000000000010204085F
S113008010204080010204081020010204081020FE
S1130090040404040404040402020202020203032A
S11300A003030303000000002300260029000000CE
S11300B00000250028002B00000000002400270079
S11300C02A009E0311241FBECFEFD8E0DEBFCDBFB0
S11300D011E0A0E0B1E0EAEAFBE002C005900D9275
S11300E0A031B107D9F721E0A0E1B1E001C01D9230
S11300F0A83BB207E1F710E0C2E6D0E004C02197C4
S1130100FE010E94CD05C136D107C9F70E94CC0378
S11301100C94D3050C94000061E088E00E9415055E
S113012061E089E00E94150561E08AE00E941505FE
S113013060E080E00E94150560E081E00E94150502
S113014060E082E00E94150560E083E00E941505EE
S113015060E084E00E94150560E085E00E941505DA
S113016026E040E855E260E070E082E191E00C9422
S1130170D7021F93CF93DF931F92CDB7DEB7162F0D
S1130180682F88E049830E945105612F89E00E940D
S113019051054981642F8AE00F90DF91CF911F911F
S11301A00C945105CF93C62F682F8CE00E94510503
S11301B06C2F8DE0CF910C945105CF93DF93EC011C
S11301C040E050E061E070E080E090E00E94B9001F
S11301D0209729F460E070E081E090E006C0229767
S11301E0A1F461E070E080E090E00E94D20068EB4E
S11301F07BE080E090E00E94750460E070E080E0C5
S113020090E0DF91CF910C94D200DF91CF910895CB
S1130210CF93DF938230910509F03EC040E050E077
S113022061E070E080E090E00E94B90061E070E07D
S113023080E090E00E94D200C4E6D0E081E00E9419
S11302408105892B71F184E00E948105892B49F194
S11302506EE170E080E090E00E947504219771F7F0
S113026061E070E080E090E00E94D20040E050E065
S113027060E070E081E090E00E94B90068EB7BE010
S113028080E090E00E94750460E070E080E090E01F
S1130290DF91CF910C94D200019711F3DF91CF91AC
S11302A0089582E090E00E94DD00D2CFCF93DF93E7
S11302B0009709F03EC040E050E061E070E080E06B
S11302C090E00E94B90060E070E081E090E00E945C
S11302D0D200C4E6D0E081E00E948105892B71F14F
S11302E084E00E948105892B49F16EE170E080E091
S11302F090E00E947504219771F760E070E081E05E
S113030090E00E94D20041E050E060E070E080E0C4
S113031090E00E94B90068EB7BE080E090E00E94EE
S1130320750460E070E080E090E0DF91CF910C9480
S1130330D200019711F3DF91CF91089580E090E00E
S11303400E94DD00D2CF8091100190911101892B80
S113035041F440E050E060E070E081E090E00E9411
S1130360B9008091100190911101019741F440E08E
S113037050E061E070E080E090E00E94B90080917C
S1130380100190911101029741F441E050E060E0C6
S113039070E080E090E00E94B90080E00E94810556
S11303A0892BD1F083E00E948105892BA9F081E09B
S11303B00E948105892BD9F084E00E948105892B54
S11303C0B1F082E00E948105892BF1F085E00E9462
S11303D08105892BC9F00895809110019091110134
S11303E00E9408011092110110921001E0CF809137
S11303F01001909111010E94DD0081E090E0909342
S1130400110180931001DDCF8091100190911101B1
S11304100E94560182E090E09093110180931001B4
S11304200895FC01918D228D892F90E0805C9F4F6F
S1130430821B91098F7399270895FC01918D828DF8
S1130440981731F0828DE80FF11D858D90E00895A5
S11304508FEF9FEF0895FC01918D828D981761F0C5
S1130460828DDF01A80FB11D5D968C91928D9F5FE7
S11304709F73928F90E008958FEF9FEF089584E922
S113048093E0892B49F080E090E0892B29F00E94C9
S1130490940381110C9400000895FC01848DDF0104
S11304A0A80FB11DA35ABF4F2C91848D90E00196E3
S11304B08F739927848FA689B7892C93A089B189D2
S11304C08C9180648C93938D848D981306C00288DC
S11304D0F389E02D80818F7D80830895CF93DF930E
S11304E0EC01888D8823C9F0EA89FB89808185FD28
S11304F005C0A889B9898C9186FD0FC00FB607FC89
S1130500F5CF808185FFF2CFA889B9898C9185FFC9
S1130510EDCFCE010E944D02E7CFDF91CF91089538
S1130520EF92FF920F931F93CF93DF93EC0181E03F
S1130530888F9B8D8C8D981305C0E889F9898081FB
S113054085FD24C0F62E0B8D10E00F5F1F4F0F7337
S11305501127E02E8C8DE8120CC00FB607FCFACFE1
S1130560E889F989808185FFF5CFCE010E944D028B
S1130570F1CF8B8DFE01E80FF11DE35AFF4FF0829E
S11305800B8FEA89FB898081806207C0EE89FF892D
S11305906083E889F98980818064808381E090E0C8
S11305A0DF91CF911F910F91FF90EF900895CF921B
S11305B0DF92EF92FF921F93CF93DF93EC016A01D6
S11305C07B01122FE889F98982E080834115514E1D
S11305D061057105B1F060E079E08DE390E0A70179
S11305E096010E94AB05DA01C9010197A109B1097D
S11305F0B695A79597958795AC01411580E1580765
S1130600A8F0E889F989108260E874E88EE190E046
S1130610A70196010E94AB05BA01A90141505109F5
S1130620610971097695679557954795EC85FD8520
S11306305083EE85FF854083188EEC89FD891083F5
S1130640EA89FB89808180618083EA89FB898081D2
S113065088608083EA89FB89808180688083EA8955
S1130660FB8980818F7D8083DF91CF911F91FF90E3
S1130670EF90DF90CF9008951F920F920FB60F92D4
S113068011242F938F939F93EF93FF93E091220173
S1130690F09123018081E0912801F091290182FDEC
S11306A012C0908180912B018F5F8F7320912C0158
S11306B0821751F0E0912B01F0E0EE5EFE4F958F32
S11306C080932B0101C08081FF91EF919F918F91C5
S11306D02F910F900FBE0F901F9018951F920F929D
S11306E00FB60F9211242F933F934F935F936F9301
S11306F07F938F939F93AF93BF93EF93FF9382E185
S113070091E00E944D02FF91EF91BF91AF919F91B3
S11307108F917F916F915F914F913F912F910F90A6
S11307200FBE0F901F90189582E191E00E94110274
S113073021E0892B09F420E0822F0895E2E1F1E021
S11307401382128288EE93E0A0E0B0E08483958364
S1130750A683B78384E091E09183808385EC90E065
S11307609587848784EC90E09787868780EC90E077
S1130770918B808B81EC90E0938B828B82EC90E068
S1130780958B848B86EC90E0978B868B118E128EE2
S1130790138E148E089508950E94B1040E94CB0311
S11307A00E948C00CFE3D2E00E94A3012097E1F3E2
S11307B00E943F02F9CFCF92DF92EF92FF920F9304
S11307C01F93CF93DF936C017A018B01C0E0D0E0DB
S11307D0CE15DF0589F0D8016D918D01D601ED911B
S11307E0FC910190F081E02DC6010995892B11F44B
S11307F07E0102C02196ECCFC701DF91CF911F91FA
S11308000F91FF90EF90DF90CF9008951F920F9279
S11308100FB60F9211242F933F938F939F93AF930F
S1130820BF938091B0019091B101A091B201B091B8
S1130830B3013091AF0123E0230F2D3720F401964B
S1130840A11DB11D05C026E8230F0296A11DB11DEF
S11308502093AF018093B0019093B101A093B201B2
S1130860B093B3018091B4019091B501A091B60108
S1130870B091B7010196A11DB11D8093B40190936D
S1130880B501A093B601B093B701BF91AF919F9109
S11308908F913F912F910F900FBE0F901F9018953D
S11308A03FB7F8948091B4019091B501A091B6013D
S11308B0B091B70126B5A89B05C02F3F19F001964A
S11308C0A11DB11D3FBFBA2FA92F982F8827820FD2
S11308D0911DA11DB11DBC01CD0142E0660F771F22
S11308E0881F991F4A95D1F708958F929F92AF92CE
S11308F0BF92CF92DF92EF92FF926B017C010E9434
S113090050044B015C01C114D104E104F10401F170
S11309100E94AA050E945004DC01CB0188199909A0
S1130920AA09BB09883E9340A105B10560F321E003
S1130930C21AD108E108F10888EE880E83E0981EF7
S1130940A11CB11CC114D104E104F10419F7DBCFDB
S1130950FF90EF90DF90CF90BF90AF909F908F90DB
S11309600895789484B5826084BD84B5816084BD23
S113097085B5826085BD85B5816085BDEEE6F0E014
S1130980808181608083E1E8F0E010828081826070
S11309908083808181608083E0E8F0E080818160F1
S11309A08083E1EBF0E0808184608083E0EBF0E021
S11309B0808181608083EAE7F0E0808184608083C5
S11309C0808182608083808181608083808180686F
S11309D080831092C1000895833081F028F481301F
S11309E099F08230A1F008958730A9F08830B9F0E9
S11309F08430D1F4809180008F7D03C08091800089
S1130A008F7780938000089584B58F7702C084B572
S1130A108F7D84BD08958091B0008F7703C080914D
S1130A20B0008F7D8093B0000895CF93DF9390E062
S1130A30FC01E458FF4F2491FC01E057FF4F8491DF
S1130A40882361F190E0880F991FFC01E854FF4F5F
S1130A50C591D491FC01E255FF4FA591B491611168
S1130A6009C09FB7F8948881209582238883EC91EC
S1130A702E230BC0623061F49FB7F8943881822F23
S1130A80809583238883EC912E2B2C939FBF06C0E3
S1130A908FB7F894E8812E2B28838FBFDF91CF91F5
S1130AA008951F93CF93DF93282F30E0F901E8597D
S1130AB0FF4F8491F901E458FF4FD491F901E057B5
S1130AC0FF4FC491CC23C9F0162F81110E94EC046E
S1130AD0EC2FF0E0EE0FFF1FE255FF4FA591B4910C
S1130AE08FB7F894111105C09C91ED2FE095E9237F
S1130AF002C0EC91ED2BEC938FBFDF91CF911F914E
S1130B000895CF93DF93282F30E0F901E859FF4F80
S1130B108491F901E458FF4FD491F901E057FF4F54
S1130B20C491CC2391F081110E94EC04EC2FF0E0ED
S1130B30EE0FFF1FEC55FF4FA591B491EC91ED23FF
S1130B4081E090E021F480E002C080E090E0DF9159
S1130B50CF9108950895A1E21A2EAA1BBB1BFD0193
S1130B600DC0AA1FBB1FEE1FFF1FA217B307E40788
S1130B70F50720F0A21BB30BE40BF50B661F771FE0
S1130B80881F991F1A9469F76095709580959095C0
S1130B909B01AC01BD01CF010895EE0FFF1F05902D
S10D0BA0F491E02D0994F894FFCFBE
S1130BAA000000009002DB0311022B021D026E02F8
S9030000FC
